{
    "txid": "2b2f97e0171b10530612e01a6b2a2ca6f78501b429b1c39db9c53abaddb6afcf",
    "hash": "2b2f97e0171b10530612e01a6b2a2ca6f78501b429b1c39db9c53abaddb6afcf",
    "version": 2,
    "locktime": 0,
    "vin": [
        {
            "txid": "5897de6bd6027a475eadd57019d4e6872c396d0716c4875a5f1a6fcfdf385c1f",
            "vout": 0,
            "scriptSig": {
                "asm": "",
                "hex": ""
            },
            "sequence": 4294967293
        }
    ],
    "vout": [
        {
            "value": 0.18,
            "n": 0,
            "scriptPubKey": {
                "asm": "OP_DUP OP_HASH160 00118005f6aec982d9ec8388c7941acaa33a8cdd OP_EQUALVERIFY OP_CHECKSIG",
                "hex": "76a91400118005f6aec982d9ec8388c7941acaa33a8cdd88ac",
                "reqSigs": 1,
                "type": "pubkeyhash",
                "addresses": [
                    "CGUFXy9eQgs3eunVAEqFdS9tnkEcgLw9VD"
                ]
            }
        }
    ],
    "hex": "02000000011f5c38dfcf6f1a5f5a87c416076d392c87e6d41970d5ad5e477a02d66bde97580000000000fdffffff0180a81201000000001976a91400118005f6aec982d9ec8388c7941acaa33a8cdd88ac00000000"
}
